:020000040802F0
:1000000000800020F9020208FF0202080303020830
:100010007503020879030208C1030208000000000A
:1000200000000000000000000000000009040208B9
:100030000D0402080000000011040208110E02085D
:1000400025040208250402082504020825040208E4
:1000500025040208250402082504020825040208D4
:1000600025040208250402082504020825040208C4
:1000700025040208250402082504020825040208B4
:1000800025040208250402082504020800000000D7
:10009000000000000000000000000000250402082D
:1000A0002504020825040208250402082504020884
:1000B000000000000000000000000000250402080D
:1000C0002504020825040208250402082504020864
:1000D0002504020825040208250402080000000087
:1000E00025040208250402080000000000000000AA
:1000F00000000000000000000000000025040208CD
:1001000000000000000000002504020800000000BC
:1001100000000000000000002504020800000000AC
:100120002504020825040208250402082504020803
:10013000250402080000000000000000000000008C
:1001400000000000000000000000000000000000AF
:1001500025040208250402082504020825040208D3
:10016000000000000000000000000000000000008F
:10017000000000000000000000000000000000007F
:100180002504020825040208000000000000000009
:10019000000000002504020800000000000000002C
:1001A000000000000000000000000000000000004F
:1001B000000000000000000000000000250402080C
:1001C000250402082504020800B583B000F0B8F940
:1001D000384B394A1360394A1360394900E02146E7
:1001E000384B99420BD20A684B6801F10C048868BD
:1001F0009842F4D91168196004330432F8E72E4BA1
:100200001A68314B9A4200D0FEE72C4B1A682F4BEC
:100210009A42F9D1274B2E4A13602E4A13602E4B77
:1002200005E00020106004329342FAD80B462B4AB6
:10023000934204D2194651F8082B5B68F4E7244B2B
:100240001B6813B9234B1B6803B1FEE700F084F968
:10025000694601A800F020F9214C224BE41AA410B1
:100260000025AC4214DC204C204BE41AA4100025DD
:10027000AC4213DC0099019801F04DF805461C4C86
:100280001C4BE41AA410002C0EDC284600F0E0F809
:10029000144B53F8253098470135E2E7134B53F8D8
:1002A000253098470135E3E7013C124B53F82430E1
:1002B0009847E8E7BABADECA0000002074000020C0
:1002C0002804020840040208785634123254769802
:1002D000780000201C01002040040208500402089D
:1002E0005004020850040208500402085004020896
:1002F000500402085004020808B5FFF765FF00BE6D
:10030000FEE71EF0040F0CBFEFF30880EFF3098047
:100310007146414A10472DE9F04182B004468846B3
:10032000124B5E6B9F6B9D6A1B6B13F0020F03D029
:100330000E4BDB6A002B0CDB0D4800F0B5F8CDF856
:1003400000803B4632462946204600F009F900BEAF
:10035000FEE74BF6AB6100F07DF90028ECD0034BD3
:100360004FF00042DA6202B0BDE8F08100ED00E03B
:10037000942B020800BEFEE71EF0040F0CBFEFF343
:100380000880EFF309807146244A10472DE9F041B7
:1003900082B004468846084B5E6B9F6B9D6A074897
:1003A00000F082F8CDF800803B46324629462046D0
:1003B00000F0D6F800BEFEE700ED00E0A42B020836
:1003C0001EF0040F0CBFEFF30880EFF309807146B5
:1003D000134A10472DE9F04182B004468846084B85
:1003E0005E6B9F6B9D6A074800F05EF8CDF8008059
:1003F0003B4632462946204600F0B2F800BEFEE7F2
:1004000000ED00E0B02B020800BEFEE700BEFEE7F4
:1004100000BEFEE770470000170302088D030208C4
:08042000D503020800BEFEE74F
:10042800042C02080000002078000020042C020898
:1004380000000010000000107800002020010020BB
:0804480000000010000000108C
:10045000FEE7000008B503460C4A12685AB10B4A81
:100460001068033323F003030344094A934206D878
:10047000064A136008BD054A06491160EFE701F01E
:1004800087FE0C2303604FF0FF30F3E77C00002071
:10049000007C00202001002001230360014B0B6041
:1004A000704700BF040000200FB400B583B004AB58
:1004B00053F8042B01938021064801F09BFE00288D
:1004C00003DD0146034800F037F803B05DF804EBA4
:1004D00004B07047840000202DE9F04385B0044645
:1004E0000F4643560BB10E461EE004252846214612
:1004F000ABBE0446384605B0BDE8F08314F9011BD5
:1005000004AA1A4402F8101C0133AB42F6D304AA21
:100510001344002203F8102C4FF00408E94640462B
:100520004946ABBE8046761B002EE3D03546102EE2
:1005300028BF10250023E8E708B5FFF7CDFF08BD69
:1005400008B500F097F8024A024B9A6008BD00BF58
:100550000000020800ED00E008B500F0ABF808BDAF
:10056000F8B504460D4617461E462748FFF79CFF80
:1005700021682648FFF798FF61682548FFF794FF38
:10058000A1682448FFF790FFE1682348FFF78CFF3C
:1005900021692248FFF788FF61692148FFF784FF3E
:1005A000A1692048FFF780FFE1691F48FFF77CFF42
:1005B0001E48FFF779FF29461D48FFF775FF1D4CC0
:1005C000E16A1D48FFF770FF216B1C48FFF76CFFC5
:1005D000E16B1B48FFF768FF15F0800F0AD115F497
:1005E000004F0CD11748FFF75FFF06991648FFF739
:1005F0005BFFF8BD39461548FFF756FFEFE7314678
:100600001348FFF751FFEDE7782A0208882A02080D
:10061000982A0208A82A0208B82A0208C82A02084A
:10062000D82A0208E82A0208F82A0208082B020839
:10063000142B020800ED00E0242B0208342B0208E2
:10064000442B0208742B02087C2B0208542B02084E
:10065000642B020883691A888A4201D000207047FF
:100660000268033A012A03D80233836101207047EC
:10067000002070470C4B1A6842F001021A600021FA
:1006800099601A6822F0847222F480321A60074A54
:100690005A601A6822F480221A60D960044B4FF025
:1006A00000629A60704700BF00380240103000249A
:1006B00000ED00E0224B9B6803F00C03042B14D0E8
:1006C000082B16D01BB11F4B1F4A1A6002E01D4BAE
:1006D0001D4A1A601A4B9B68C3F303131B4AD15C73
:1006E000184A1368CB4013607047164B184A1A60BB
:1006F000F0E7134B5A685B6803F03F0312F4800F76
:1007000013D0134AB2FBF3F20D4B5B68C3F38813AB
:1007100003FB02F30A4A5268C2F30142013252005B
:10072000B3FBF2F3074A1360D4E7074AB2FBF3F2D4
:10073000034B5B68C3F3881303FB02F3EAE700BFD4
:10074000003802400C0000200024F400C02B0208F6
:1007500000127A0070B5C00001F0DCFA01461C48B6
:1007600001F0E4FB064600F065FF04460D46304606
:1007700001F0EEFC80B2174B188000F049FF0246F2
:100780000B462046294600F0F5FD0022124B00F0F2
:10079000A9FF01F0B9F9054601F0DAFC84B2204660
:1007A00001F0BCFA0146284601F002FA4FF07C51F4
:1007B00001F0BAFC18B9E4B2084B1C7070BD4FF0E0
:1007C0007E51284601F0F6F901F0C2FCC4B2F3E70D
:1007D0000024744B0601002000003040040100207A
:1007E00008B5FFF7B7FF194B1B78194A93600F2B19
:1007F00003D9184A138801331380154B9A6802F005
:100800000F029A609A681349098842EA01129A60B5
:10081000DA6842F40042DA60DA6822F48052DA6080
:10082000DA6822F48062DA60DA6842F00802DA609C
:10083000DA6842F00402DA601A6922F400521A619E
:100840001A6922F480521A6108BD00BF0401002019
:100850000014014006010020024AD36843F400530B
:10086000D360704700140140044B1B6813F0200F45
:10087000FAD0024B5868C0B2704700BF0014014064
:1008800003281BD8DFE800F002090F154FF0804263
:10089000136843F0010313607047094A136843F07B
:1008A000010313607047074A136843F001031360A4
:1008B0007047054A136843F001031360704700BF97
:1008C0000004004000080040000C0040032827D826
:1008D000DFE800F0020C151E4FF080439A6A0022F8
:1008E0009A629A6A01391143996270470D4B9A6A6C
:1008F00000229A629A6A01391143996270470A4B41
:100900009A6A00229A629A6A013911439962704781
:10091000064B9A6A00229A629A6A013911439962D7
:10092000704700BF0004004000080040000C004079
:10093000032800F2EE81DFE810F004007001F800F7
:100940008000013A032A00F2E481DFE802F0021F8E
:100950003C594FF080439A6922F002029A619A69E9
:1009600022F001029A619A6942F008029A619A693A
:1009700022F0700242EA011199615A6942F00102C3
:100980005A611A6A42F001021A6270474FF08043BE
:100990009A6922F480729A619A6922F400729A61CB
:1009A0009A6942F400629A619A6922F4E04242EA4A
:1009B000013199615A6942F001025A611A6A42F0A2
:1009C00010021A6270474FF08043DA6922F0010288
:1009D000DA61DA6922F00202DA61DA6942F00802C9
:1009E000DA61DA6922F0700242EA0111D9615A69CA
:1009F00042F001025A611A6A42F480721A62704728
:100A00004FF08043DA6922F48072DA61DA6922F405
:100A10000072DA61DA6942F40062DA61DA6922F4BA
:100A2000E04242EA0131D9615A6942F001025A6159
:100A30001A6A42F480521A627047013A032A00F29D
:100A40006881DFE802F0021E3A56A14B9A6922F053
:100A500002029A619A6922F001029A619A6942F04F
:100A600008029A619A6922F0700242EA01119961C2
:100A70005A6942F001025A611A6A42F001021A628E
:100A80007047934B9A6922F480729A619A6922F4B2
:100A900000729A619A6942F400629A619A6922F43A
:100AA000E04242EA013199615A6942F001025A6119
:100AB0001A6A42F010021A627047854BDA6922F016
:100AC0000102DA61DA6922F00202DA61DA6942F0DF
:100AD0000802DA61DA6922F0700242EA0111D96192
:100AE0005A6942F001025A611A6A42F480721A622B
:100AF0007047774BDA6922F48072DA61DA6922F49E
:100B00000072DA61DA6942F40062DA61DA6922F4C9
:100B1000E04242EA0131D9615A6942F001025A6168
:100B20001A6A42F480521A627047013A032A00F2AC
:100B3000F080DFE802F0021E3A56664B9A6922F016
:100B400002029A619A6922F001029A619A6942F05E
:100B500008029A619A6922F0700242EA01119961D1
:100B60005A6942F001025A611A6A42F001021A629D
:100B70007047584B9A6922F480729A619A6922F4FC
:100B800000729A619A6942F400629A619A6922F449
:100B9000E04242EA013199615A6942F001025A6128
:100BA0001A6A42F010021A6270474A4BDA6922F060
:100BB0000102DA61DA6922F00202DA61DA6942F0EE
:100BC0000802DA61DA6922F0700242EA0111D961A1
:100BD0005A6942F001025A611A6A42F480721A623A
:100BE00070473C4BDA6922F48072DA61DA6922F4E8
:100BF0000072DA61DA6942F40062DA61DA6922F4D9
:100C0000E04242EA0131D9615A6942F001025A6177
:100C10001A6A42F480521A627047013A032A78D85D
:100C2000DFE802F0021E3A5C2B4B9A6922F00202C6
:100C30009A619A6922F001029A619A6942F0080267
:100C40009A619A6922F0700242EA011199615A6927
:100C500042F001025A611A6A42F001021A627047B8
:100C60001D4B9A6922F480729A619A6922F400728B
:100C70009A619A6942F400629A619A6922F4E042A8
:100C800042EA013199615A6942F001025A611A6AD5
:100C900042F010021A6270470F4BDA6922F001022B
:100CA000DA61DA6922F00202DA61DA6942F00802F6
:100CB000DA61DA6922F0700242EA0111D9615A69F7
:100CC00042F001025A611A6A42F480721A62704755
:100CD000000C004000080040000400400D4BDA69A1
:100CE00022F48072DA61DA6922F40072DA61DA6978
:100CF00042F40062DA61DA6922F4E04242EA013148
:100D0000D9615A6942F001025A611A6A42F480526A
:100D10001A62704700040040032852D8DFE800F050
:100D2000023F2C19013903294BD8DFE801F00206F4
:100D30000A0E4FF080435A6370474FF080439A6326
:100D400070474FF08043DA6370474FF080431A6476
:100D500070470139032934D8DFE801F00205080B98
:100D6000184B5A637047174B9A637047154BDA63F9
:100D70007047144B1A6470470139032921D8DFE802
:100D800001F00205080B104B5A6370470E4B9A6333
:100D900070470D4BDA6370470B4B1A64704701398B
:100DA00003290ED8DFE801F00205080B074B5A6350
:100DB0007047064B9A637047044BDA637047034BE6
:100DC0001A647047000C0040000800400004004016
:100DD0004FF08042136843F08003136003280FD85C
:100DE000DFE800F00206090C4FF08043D96270473B
:100DF000044BD9627047044BD9627047034BD962E8
:100E0000704700BF0004004000080040000C004094
:100E100008B5084B1B683BB19847074A002353604D
:100E20009360044A136008BD044B1B68002BFAD082
:100E30009847F8E70C01002010E000E008010020CE
:100E4000094A136843F001031360074B1B6813F052
:100E5000020FFAD0044B9A6822F001029A609A6855
:100E600022F002029A6070470038024001380428DC
:100E70002BD8DFE800F0030B131B23001348036B90
:100E8000012202FA01F11943016370470F48436BD5
:100E9000012202FA01F11943416370470B48036CC8
:100EA000012202FA01F11943016470470748436CBB
:100EB000012202FA01F11943416470470348036DAE
:100EC000012202FA01F1194301657047003802401E
:100ED0000F2921D801280BD010B1022810D070475B
:100EE0000E480368490002FA01F119430160704796
:100EF0000B480368490002FA01F119430160704789
:100F00000C2909D910B4074C20684B0002FA03F1F0
:100F10000143216010BC7047704700BF00000240D1
:100F200000040240000802400F2919D801280AD005
:100F300010B102280ED070470A48436802FA01F146
:100F40001943416070470848436802FA01F11943A8
:100F5000416070470548436802FA01F11943416056
:100F6000704700BF00000240000402400008024039
:100F70000F2921D801280BD010B1022810D07047BA
:100F80000E488368490002FA01F1194381607047F5
:100F90000B488368490002FA01F1194381607047E8
:100FA0000C2909D910B4074CA0684B0002FA03F1D0
:100FB0000143A16010BC7047704700BF00000240B1
:100FC00000040240000802400F2945D8012A07D03A
:100FD000002A41D101282CD010B3022832D070470A
:100FE00001280BD010B1022810D070471B4843696C
:100FF000012202FA01F1194341617047184843691F
:10100000012202FA01F11943416170470C2923D9E9
:1010100014484369012202FA01F119434161704702
:101020000E484369012202FA01F123EA01014161FC
:1010300070470B484369012202FA01F123EA0101DA
:10104000416170470C2907D906484369012202FA19
:1010500001F123EA01014161704700BF0000024035
:10106000000402400008024007291DD801280BD0C7
:1010700010B1022810D070471F48036A890002FA95
:1010800001F11943016270471C48036A890002FAA2
:1010900001F11943016270471948036A890002FA95
:1010A00001F11943016270470F2923D810B40128B8
:1010B0000DD018B1022814D010BC70470E4C606AD5
:1010C00008398B0002FA03F101436162F4E70B4C2B
:1010D000606AA1F108039B0002FA03F10143616217
:1010E000EAE70748436A0839890002FA01F119431F
:1010F0004162E1E7704700BF000002400004024087
:101100000008024008B500210320FFF7AFFE0222CD
:1011100000210846FFF7DCFE012200210846FFF708
:10112000A3FF022201210020FFF7D2FE0122114677
:101130000020FFF799FF022211460020FFF7C8FEAA
:10114000012202210020FFF78FFF0222032100204D
:10115000FFF7BEFE012203210020FFF785FF0122D9
:101160000E210220FFF7B4FE00220E210220FFF71D
:10117000DBFE01220E210220FFF7FAFE01220F21E1
:101180000220FFF7A5FE00220F210220FFF7CCFE70
:1011900001220F210220FFF7EBFE08BD08B5402118
:1011A0000020FFF793FB42F210710020FFF710FEC2
:1011B0000020FFF765FB08BD08B501220E210220C3
:1011C000FFF702FF01220F210220FFF7FDFE08BDFD
:1011D00008B500220E210220FFF7F6FE00220F21A3
:1011E0000220FFF7F1FE08BD10B5044602460621B5
:1011F0000020FFF79DFB002221461046FFF78CFDE3
:1012000010BD08B50120FFF7EFFF0220FFF7ECFF4C
:101210000320FFF7E9FF0420FFF7E6FF08BD10B544
:10122000044640F2DC5201460020FFF775FD2246DD
:1012300006210020FFF77CFB10BD08B50220FFF758
:10124000D3FF0420FFF7D0FF0120FFF7E8FF0320C2
:10125000FFF7E5FF08BD08B50120FFF7C5FF032034
:10126000FFF7C2FF0220FFF7DAFF0420FFF7D7FFE6
:1012700008BD08B50120FFF7B7FF0220FFF7B4FF54
:101280000420FFF7B1FF0320FFF7C9FF08BD08B531
:101290000220FFF7A9FF0320FFF7A6FF0420FFF7B6
:1012A000A3FF0120FFF7BBFF08BD08B5FFF7C8FD8E
:1012B00000210120FFF7DAFD01210846FFF7D6FDE6
:1012C00002210120FFF7D2FD0E210420FFF7CEFD01
:1012D00005210420FFF7CAFD02220C210020FFF7A0
:1012E000F7FD08220C210020FFF7BEFE02220B2191
:1012F0000020FFF7EDFD08220B210020FFF7B4FED0
:10130000FFF700FF4FF41650FFF76AFAFFF7A4FA51
:10131000FFF744FF08BD10B5FFF7C7FF10E0FFF768
:1013200057FFFFF76EFF10E0FFF787FFFFF744FF5F
:101330000DE0FFF741FFFFF78EFF0AE0522C0FD0C0
:10134000FFF792FA04465328E9D0462CECD0422C01
:10135000EFD04C2CF2D1FFF72FFFFFF798FFEDE70E
:10136000FFF72AFFFFF785FFEAE7000081F0004161
:1013700002E000BF83F0004330B54FEA41044FEA7A
:10138000430594EA050F08BF90EA020F1FBF54EA15
:10139000000C55EA020C7FEA645C7FEA655C00F0B1
:1013A000E2804FEA5454D4EB5555B8BF6D420CDD82
:1013B0002C4480EA020281EA030382EA000083EA05
:1013C000010180EA020281EA0303362D88BF30BDA5
:1013D00011F0004F4FEA01314FF4801C4CEA1131FB
:1013E00002D0404261EB410113F0004F4FEA03335A
:1013F0004CEA133302D0524263EB430394EA050FE5
:1014000000F0A780A4F10104D5F1200E0DDB02FA53
:101410000EFC22FA05F2801841F1000103FA0EF2E7
:10142000801843FA05F359410EE0A5F120050EF1AD
:10143000200E012A03FA0EFC28BF4CF0020C43FADE
:1014400005F3C01851EBE37101F0004507D54FF0EB
:10145000000EDCF1000C7EEB00006EEB0101B1F53B
:10146000801F1BD3B1F5001F0CD349085FEA300081
:101470004FEA3C0C04F101044FEA445212F5800F8C
:1014800080F09A80BCF1004F08BF5FEA500C50F129
:10149000000041EB045141EA050130BD5FEA4C0C0C
:1014A000404141EB010111F4801FA4F10104E9D195
:1014B00091F0000F04BF01460020B1FA81F308BF8C
:1014C0002033A3F10B03B3F120020CDA0C3208DD58
:1014D00002F1140CC2F10C0201FA0CF021FA02F133
:1014E0000CE002F11402D8BFC2F1200C01FA02F1A3
:1014F00020FA0CFCDCBF41EA0C019040E41AA2BFC8
:1015000001EB0451294330BD6FEA04041F3C1CDA8F
:101510000C340EDC04F11404C4F1200220FA04F0AF
:1015200001FA02F340EA030021FA04F345EA030159
:1015300030BDC4F10C04C4F1200220FA02F001FA1B
:1015400004F340EA0300294630BD21FA04F029469D
:1015500030BD94F0000F83F4801306BF81F4801136
:101560000134013D4EE77FEA645C18BF7FEA655CA9
:1015700029D094EA050F08BF90EA020F05D054EA7B
:10158000000C04BF1946104630BD91EA030F1EBF80
:101590000021002030BD5FEA545C05D14000494184
:1015A00028BF41F0004130BD14F580043CBF01F577
:1015B000801130BD01F0004545F0FE4141F470015D
:1015C0004FF0000030BD7FEA645C1ABF1946104638
:1015D0007FEA655C1CBF0B46024650EA013406BF39
:1015E00052EA033591EA030F41F4002130BD00BFF8
:1015F00090F0000F04BF0021704730B54FF48064B5
:1016000004F132044FF000054FF0000150E700BF35
:1016100090F0000F04BF0021704730B54FF4806494
:1016200004F1320410F0004548BF40424FF0000181
:101630003EE700BF42004FEAE2014FEA31014FEAC4
:1016400002701FBF12F07F4393F07F4F81F0605113
:10165000704732F07F4208BF704793F07F4F04BF5E
:1016600041F40021704730B54FF4607401F000453B
:1016700021F000411CE700BF50EA010208BF70479B
:1016800030B54FF000050AE050EA010208BF70478C
:1016900030B511F0004502D5404261EB41014FF4F5
:1016A000806404F132045FEA915C3FF4D8AE4FF0FD
:1016B00003025FEADC0C18BF03325FEADC0C18BFE0
:1016C000033202EBDC02C2F1200300FA03FC20FA31
:1016D00002F001FA03FE40EA0E0021FA02F114447E
:1016E000BDE600BF70B54FF0FF0C4CF4E06C1CEA97
:1016F00011541DBF1CEA135594EA0C0F95EA0C0F08
:1017000000F0DEF82C4481EA030621EA4C5123EA7A
:101710004C5350EA013518BF52EA033541F48011A9
:1017200043F4801338D0A0FB02CE4FF00005E1FB5C
:1017300002E506F00042E0FB03E54FF00006E1FBA6
:1017400003569CF0000F18BF4EF0010EA4F1FF04E9
:10175000B6F5007F64F5407404D25FEA4E0E6D4129
:1017600046EB060642EAC62141EA55514FEAC5203A
:1017700040EA5E504FEACE2EB4F1FD0C88BFBCF5B6
:10178000E06F1ED8BEF1004F08BF5FEA500E50F167
:10179000000041EB045170BD06F0004646EA01012D
:1017A00040EA020081EA0301B4EB5C04C2BFD4EB5F
:1017B0000C0541EA045170BD41F480114FF0000E58
:1017C000013C00F3AB8014F1360FDEBF002001F0C6
:1017D000004170BDC4F10004203C35DA0C341BDC40
:1017E00004F11404C4F1200500FA05F320FA04F012
:1017F00001FA05F240EA020001F0004221F0004146
:1018000010EBD37021FA04F642EB06015EEA430EB8
:1018100008BF20EAD37070BDC4F10C04C4F12005E8
:1018200000FA04F320FA05F001FA04F240EA02009B
:1018300001F0004110EBD37041F100015EEA430E6C
:1018400008BF20EAD37070BDC4F1200500FA05F28C
:101850004EEA020E20FA04F301FA05F243EA02030B
:1018600021FA04F001F0004121FA04F220EA02001A
:1018700000EBD3705EEA430E08BF20EAD37070BD60
:1018800094F0000F0FD101F00046400041EB010140
:1018900011F4801F08BF013CF7D041EA060195F022
:1018A000000F18BF704703F00046520043EB0303DC
:1018B00013F4801F08BF013DF7D043EA06037047C9
:1018C00094EA0C0F0CEA135518BF95EA0C0F0CD0D4
:1018D00050EA410618BF52EA4306D1D181EA03011A
:1018E00001F000414FF0000070BD50EA410606BF14
:1018F0001046194652EA430619D094EA0C0F02D159
:1019000050EA013613D195EA0C0F05D152EA03369D
:101910001CBF104619460AD181EA030101F00041BB
:1019200041F0FE4141F470014FF0000070BD41F004
:10193000FE4141F4780170BD70B54FF0FF0C4CF4DE
:10194000E06C1CEA11541DBF1CEA135594EA0C0FFD
:1019500095EA0C0F00F0A7F8A4EB050481EA030E4A
:1019600052EA03354FEA013100F088804FEA033331
:101970004FF0805545EA131343EA12634FEA0222FF
:1019800045EA111545EA10654FEA00260EF00041C0
:101990009D4208BF964244F1FD0404F5407402D212
:1019A0005B084FEA3202B61A65EB03055B084FEAA3
:1019B00032024FF480104FF4002CB6EB020E75EBA0
:1019C000030E22BFB61A754640EA0C005B084FEAC8
:1019D0003202B6EB020E75EB030E22BFB61A754645
:1019E00040EA5C005B084FEA3202B6EB020E75EB90
:1019F000030E22BFB61A754640EA9C005B084FEA08
:101A00003202B6EB020E75EB030E22BFB61A754614
:101A100040EADC0055EA060E18D04FEA051545EA03
:101A200016754FEA06164FEAC30343EA52734FEAAC
:101A3000C2025FEA1C1CC0D111F4801F0BD141EA25
:101A400000014FF000004FF0004CB6E711F4801F8A
:101A500004BF01430020B4F1FD0C88BFBCF5E06F6A
:101A60003FF6AFAEB5EB030C04BFB6EB020C5FEA7A
:101A7000500C50F1000041EB045170BD0EF0004ECF
:101A80004EEA113114EB5C04C2BFD4EB0C0541EA01
:101A9000045170BD41F480114FF0000E013C90E6FE
:101AA00045EA060E8DE60CEA135594EA0C0F08BFC2
:101AB00095EA0C0F3FF43BAF94EA0C0F0AD150EAC1
:101AC00001347FF434AF95EA0C0F7FF425AF104654
:101AD00019462CE795EA0C0F06D152EA03353FF47C
:101AE000FDAE1046194622E750EA410618BF52EAF9
:101AF00043067FF4C5AE50EA41047FF40DAF52EACD
:101B000043057FF4EBAE12E74FEA4102B2F1E04346
:101B100024BFB3F5001CDCF1FE5C0DD901F0004CD4
:101B20004FEAC0024CEA5070B2F1004F40EB830024
:101B300008BF20F00100704711F0804F21D113F150
:101B40003872BCBF01F00040704741F480114FEA89
:101B50005252C2F11802C2F1200C10FA0CF320FA12
:101B600002F018BF40F001004FEAC1234FEAD3232F
:101B700003FA0CFC40EA0C0023FA02F34FEA430399
:101B8000CCE77FEA625307D150EA01331EBF4FF022
:101B9000FE4040F44000704701F0004040F0FE403D
:101BA00040F40000704700BF80F0004002E000BF3A
:101BB00081F0004142001FBF5FEA410392EA030F38
:101BC0007FEA226C7FEA236C6AD04FEA1262D2EB82
:101BD0001363C1BFD218414048404140B8BF5B4287
:101BE000192B88BF704710F0004F40F4000020F020
:101BF0007F4018BF404211F0004F41F4000121F036
:101C00007F4118BF494292EA030F3FD0A2F101027F
:101C100041FA03FC10EB0C00C3F1200301FA03F1BD
:101C200000F0004302D5494260EB4000B0F5000FE0
:101C300013D3B0F1807F06D340084FEA310102F19F
:101C40000102FE2A51D2B1F1004F40EBC25008BF51
:101C500020F0010040EA03007047490040EB00001B
:101C600010F4000FA2F10102EDD1B0FA80FCACF14A
:101C7000080CB2EB0C0200FA0CF0AABF00EBC25049
:101C800052421843BCBFD0401843704792F0000F37
:101C900081F4000106BF80F400000132013BB5E78A
:101CA0004FEA41037FEA226C18BF7FEA236C21D000
:101CB00092EA030F04D092F0000F08BF0846704765
:101CC00090EA010F1CBF0020704712F07F4F04D133
:101CD000400028BF40F00040704712F100723CBF46
:101CE00000F50000704700F0004343F0FE4040F470
:101CF000000070477FEA226216BF08467FEA23632E
:101D00000146420206BF5FEA412390EA010F40F418
:101D1000800070474FF0000304E000BF10F0004364
:101D200048BF40425FEA000C08BF704743F096434B
:101D300001464FF000001CE050EA010208BF704766
:101D40004FF000030AE000BF50EA010208BF7047ED
:101D500011F0004302D5404261EB41015FEA010C02
:101D600002BF84460146002043F0B64308BFA3F1FA
:101D70008053A3F50003BCFA8CF2083AA3EBC253DC
:101D800010DB01FA02FC634400FA02FCC2F12002FB
:101D9000BCF1004F20FA02F243EB020008BF20F032
:101DA0000100704702F1200201FA02FCC2F1200298
:101DB00050EA4C0021FA02F243EB020008BF20EA8D
:101DC000DC7070474FF0FF0C1CEAD0521EBF1CEABB
:101DD000D15392EA0C0F93EA0C0F6FD01A4480EAA9
:101DE000010C400218BF5FEA41211ED04FF0006392
:101DF00043EA501043EA5111A0FB01310CF00040BE
:101E0000B1F5000F3EBF490041EAD3715B0040EAE3
:101E1000010062F17F02FD2A1DD8B3F1004F40EBB3
:101E2000C25008BF20F00100704790F0000F0CF086
:101E3000004C08BF49024CEA502040EA51207F3A4A
:101E4000C2BFD2F1FF0340EAC250704740F4000025
:101E50004FF00003013A5DDC12F1190FDCBF00F016
:101E600000407047C2F10002410021FA02F1C2F1C4
:101E7000200200FA02FC5FEA310040F1000053EA60
:101E80004C0308BF20EADC70704792F0000F00F0AE
:101E9000004C02BF400010F4000F013AF9D040EAB4
:101EA0000C0093F0000F01F0004C02BF490011F448
:101EB000000F013BF9D041EA0C018FE70CEAD15346
:101EC00092EA0C0F18BF93EA0C0F0AD030F0004CC6
:101ED00018BF31F0004CD8D180EA010000F000407A
:101EE000704790F0000F17BF90F0004F084691F038
:101EF000000F91F0004F14D092EA0C0F01D1420272
:101F00000FD193EA0C0F03D14B0218BF084608D13A
:101F100080EA010000F0004040F0FE4040F4000084
:101F2000704740F0FE4040F4400070474FF0FF0C17
:101F30001CEAD0521EBF1CEAD15392EA0C0F93EA5E
:101F40000C0F69D0A2EB030280EA010C49024FEAB0
:101F5000402037D04FF0805343EA111143EA101369
:101F60000CF000408B4238BF5B0042F17D024FF421
:101F7000000C8B4224BF5B1A40EA0C00B3EB510FFC
:101F800024BFA3EB510340EA5C00B3EB910F24BFE5
:101F9000A3EB910340EA9C00B3EBD10F24BFA3EB6A
:101FA000D10340EADC001B0118BF5FEA1C1CE0D132
:101FB000FD2A3FF650AF8B4240EBC25008BF20F0E5
:101FC000010070470CF0004C4CEA50207F32C2BF39
:101FD000D2F1FF0340EAC250704740F400004FF0D6
:101FE0000003013A37E792F0000F00F0004C02BF07
:101FF000400010F4000F013AF9D040EA0C0093F0D1
:10200000000F01F0004C02BF490011F4000F013B2A
:10201000F9D041EA0C0195E70CEAD15392EA0C0F92
:1020200008D142027FF47DAF93EA0C0F7FF470AFCA
:10203000084676E793EA0C0F04D14B023FF44CAF0D
:1020400008466EE730F0004C18BF31F0004CCAD1A2
:1020500030F000427FF45CAF31F000437FF43CAFDE
:102060005FE700BF4FF0FF3C06E000BF4FF0010C00
:1020700002E000BF4FF0010C4DF804CD4FEA4002E2
:102080004FEA41037FEA226C18BF7FEA236C11D02C
:1020900001B052EA530C18BF90EA010F58BFB2EBDF
:1020A000030088BFC81738BF6FEAE17018BF40F05F
:1020B000010070477FEA226C02D15FEA402C05D113
:1020C0007FEA236CE4D15FEA412CE1D05DF8040B98
:1020D000704700BF844608466146FFE70FB5FFF72B
:1020E000C9FF002848BF10F1000F0FBD4DF808EDE3
:1020F000FFF7F4FF0CBF012000205DF808FB00BFD4
:102100004DF808EDFFF7EAFF34BF012000205DF82D
:1021100008FB00BF4DF808EDFFF7E0FF94BF01207A
:1021200000205DF808FB00BF4DF808EDFFF7D2FF77
:1021300094BF012000205DF808FB00BF4DF808EDBA
:10214000FFF7C8FF34BF012000205DF808FB00BF87
:1021500042000ED2B2F1FE4F0BD34FF09E03B3EB11
:10216000126209D44FEA002343F0004323FA02F03D
:1021700070474FF00000704712F1610F01D1420229
:1021800002D14FF0FF3070474FF00000704700BFA2
:10219000014B1868704700BF1000002030B5141EB6
:1021A00005469BB0184605DA8B232B604FF0FF30B5
:1021B0001BB030BD4FF40273ADF80C3014BF04F106
:1021C000FF332346029305934FF6FF73009104916A
:1021D000ADF80E3002461E9B6946284600F072F8A4
:1021E000431CBCBF8B232B60002CE1D0009B002242
:1021F0001A70DDE707B5009313460A460146034807
:102200000068FFF7CBFF03B05DF804FB100000206F
:102210002DE9F0478E689E4282460C4690469946CC
:1022200037D88A8912F4906F31D0256809696F1AFE
:102230006569022305EB450595FBF3F509F10103FB
:102240003B449D4238BF1D46530530D5294600F01A
:1022500079FB064650B90C23CAF80030A38943F035
:102260004003A3814FF0FF30BDE8F0873A46216973
:1022700000F0F6FAA38923F4906343F08003A3816E
:10228000266165613E44ED1B2660A5604E464E45C5
:1022900000D94E4632464146206800F0ECFAA36869
:1022A0009B1BA36023681E4426600020DCE72A46AF
:1022B00000F0A2FB06460028E2D12169504600F05A
:1022C000F3FAC8E72DE9F04F9DB0804603938B8960
:1022D0001D060C4616460FD50B696BB9402100F060
:1022E00031FB2060206128B90C23C8F800304FF082
:1022F000FF30C7E0402363610023099320238DF85A
:10230000293030238DF82A304FF0010B37463D46F7
:1023100015F8013B0BB1252B3ED1B7EB060A0BD0CC
:102320005346324621464046FFF772FF013000F027
:10233000A480099B534409933B78002B00F09D80B7
:1023400000234FF0FF32CDE90523049307938DF866
:1023500053301A932F46052217F8011B4F4800F0FF
:102360002FFA049BD0B9D90644BF20228DF8532000
:102370001A0744BF2B228DF853202A782A2A15D019
:10238000079A2F4600200A25394611F8013B303BB9
:10239000092B4DD9B8B10FE02F46B8E73F4A801A54
:1023A0000BFA00F0184304903D46D3E7039A111D41
:1023B00012680391002A01DB079204E0524243F0C5
:1023C0000203079204933B782E2B0CD17B782A2BA7
:1023D00033D1039B1A1D1B680392002BB8BF4FF02B
:1023E000FF33023705932E4D39780322284600F03B
:1023F000E7F938B14023401B03FA00F0049B034384
:1024000001370493397827488DF8281006227E1C5E
:1024100000F0D6F9002838D0234B13BB039B0733B9
:1024200023F0070308330393099B4B4409936DE79B
:1024300005FB023201200F46A6E700230137059372
:1024400019460A25384610F8012B303A092A03D9D3
:10245000002BC8D00591C6E705FB012101230746E3
:10246000F0E703AB00932246104B04A94046AFF3BC
:102470000080B0F1FF3F8146D6D1A3895B063FF5CE
:1024800036AF09981DB0BDE8F08F03AB009322462C
:10249000064B04A9404600F081F8EAE7D02B020879
:1024A000D62B0208DA2B02080000000011220208D5
:1024B0002DE9F04791461F468A680B69DDF82080B8
:1024C0009342B8BF1346C9F8003091F8432006463E
:1024D0000C4612B10133C9F800302368990642BF97
:1024E000D9F800300233C9F80030256815F0060528
:1024F00007D104F1190AE368D9F800209B1AAB420E
:1025000028DC94F843302268003318BF0123920678
:102510002DD404F1430239463046C047013020D063
:102520002368E568D9F8002003F00603042B08BFF0
:10253000AD1AA36822690CBF25EAE5750025934210
:10254000C4BF9B1AED184FF000091A344D451AD13B
:10255000002008E00123524639463046C04701308A
:1025600003D14FF0FF30BDE8F0870135C3E7E11834
:102570005A1C302081F84300224494F8451082F818
:1025800043100233C5E70123224639463046C0478F
:102590000130E6D009F10109D8E700002DE9F04348
:1025A00001F1430C0C46097E85B06E29174606469C
:1025B00098460C9A00F0B38022D8632936D00AD806
:1025C000002900F0B980582900F0838004F1420509
:1025D00084F8421032E0642901D06929F6D12068DC
:1025E0001368050603F104012AD51B681160002B4E
:1025F00003DA2D225B4284F843206F480A2239E037
:10260000732900F09D8008D86F2920D07029DDD172
:10261000236843F02003236003E0752917D078294D
:10262000D4D1782384F84530644855E01368191DE7
:102630001B68116004F1420584F8423001238CE0EC
:102640001B68116010F0400F18BF1BB2CFE7136872
:102650002568181D1060280601D51B6802E0680671
:10266000FBD51B8854486F2914BF0A220822002179
:1026700084F843106568A560002DC0F2958021683C
:1026800021F004012160002B3DD1002D40F08E800F
:102690006546082A0BD12368DB0708D523696268E1
:1026A0009A42DEBF302305F8013C05F1FF35ACEB63
:1026B00005032361CDF800803B4603AA214630463E
:1026C000FFF7F6FE01304DD14FF0FF3005B0BDE809
:1026D000F083394884F84510136821681D1D1B6874
:1026E00015600A060BD5CA0744BF41F020012160DE
:1026F0001BB9226822F0200222601022B7E74D06A3
:1027000048BF9BB2EFE76546B3FBF2F102FB113322
:10271000C35C05F8013D0B460029F5D1B9E7136804
:1027200025686169181D106028061B6801D51960AD
:1027300002E06A06FBD51980002323616546B9E7EC
:102740001368191D11601D6862680021284600F099
:1027500037F808B1401B606063682361002384F888
:102760004330A7E723692A4639463046C04701303F
:10277000AAD023689B0713D4E068039B9842B8BF94
:102780001846A3E701234A4639463046C047013080
:102790009AD00135E368039A9B1AAB42F2DCEBE76F
:1027A000002504F11909F5E7002BACD1037884F872
:1027B000423004F142056CE7E12B0208F22B0208DB
:1027C00001F0FF01102A2BDB10F0070F08D010F8E2
:1027D000013B013A8B422DD010F0070F42B3F6D1E6
:1027E000F0B441EA012141EA014122F007047FF0FF
:1027F00000070023F0E80256083C85EA010586EA56
:10280000010685FA47F5A3FA87F586FA47F6A5FA91
:1028100087F68EB9EED1F0BC01F0FF0102F007029D
:1028200032B110F8013B013A83EA010313B1F8D148
:102830000020704701387047002D06BF3546033829
:10284000073815F0010F07D1013015F4807F02BF62
:10285000013015F4C03F0130F0BC0138704700BFB3
:1028600010B5431E0A44914200D110BD11F8014B2E
:1028700003F8014FF7E7884210B501EB020307D8D0
:10288000421E99420AD011F8014B02F8014FF8E7B5
:102890008342F5D98118D21AD34200D110BD13F862
:1028A000014D01F8014DF7E738B50546002945D03F
:1028B00051F8043C0C1F002BB8BFE41800F0D2F80C
:1028C0001F4A1368104633B9636014602846BDE898
:1028D000384000F0C8B8A3420CD92168621893426E
:1028E00004BF1A685B68636004BF5218226004600A
:1028F000ECE713465A680AB1A242FAD91968581887
:10290000A0420BD120680144581882421960DDD1E1
:10291000106852685A6001441960D7E702D90C2345
:102920002B60D3E7206821188A4204BF11685268DF
:10293000626004BF091821605C60C7E738BD00BF52
:102940001001002070B5CD1C25F0030508350C2DB5
:1029500038BF0C25002D064601DBA94203D90C2304
:102960003360002070BD00F07DF8214A14682146D4
:1029700091B9204C23681BB9304600F063F8206001
:102980002946304600F05EF8431C24D10C23336006
:10299000304600F068F8E4E70B685B1B18D40B2B9B
:1029A0000FD90B60CD50CC18304600F05CF804F124
:1029B0000B00231D20F00700C31AD3D05A42E25067
:1029C000D0E78C424B6816BF636013600C46EBE7A0
:1029D0000C464968CCE7C41C24F00304A04205D08F
:1029E000211A304600F02EF80130CFD02560DBE709
:1029F0001001002014010020F8B5074614460E46C9
:102A000021B91146BDE8F840FFF79CBF22B9FFF796
:102A10004BFF25462846F8BD00F026F8A0420FD20D
:102A200021463846FFF78EFF05460028F2D0314692
:102A30002246FFF715FF31463846FFF735FFE9E735
:102A40003546E7E738B5064C0023054608462360BF
:102A5000FDF700FD431C02D1236803B12B6038BD94
:102A6000180100207047704751F8043C181F002BD4
:102A7000BCBF0B58C0187047537461636B206672FB
:102A8000616D653A0A000000205230203D2020256B
:102A90003038580A00000000205231203D20202507
:102AA0003038580A00000000205232203D202025F6
:102AB0003038580A00000000205233203D202025E5
:102AC0003038580A0000000020523132203D2025C5
:102AD0003038580A00000000204C52203D202025AC
:102AE0003038580A00000000205043203D202025A7
:102AF0003038580A0000000020505352203D202555
:102B00003038580A000000004653522F4641523ACE
:102B10000A0000002043465352203D202025303833
:102B2000580A00002048465352203D2020253038C6
:102B3000580A00002044465352203D2020253038BA
:102B4000580A00002041465352203D2020253038AD
:102B5000580A0000204D4D464152203D2025303876
:102B6000580A00002042464152203D20202530389E
:102B7000580A00004D6973630A000000204C522F70
:102B80004558435F52455455524E3D2025303858E4
:102B90000A0000005B486172644661756C745D0AEE
:102BA000000000005B4275734661756C745D0A003D
:102BB0005B55736167654661756C745D0A00000062
:102BC00000000000000000000102030406070809DD
:102BD000232D302B2000686C4C0065666745464706
:102BE0000030313233343536373839414243444589
:102BF00046003031323334353637383961626364F8
:032C000065660006
:102C04007856341280000020000000000024F400F4
:102C1400140000200000000000000000000000007C
:102C240000000000000000000000000000000000A0
:102C34000000000000000000000000000000000090
:102C44000000000000000000000000000000000080
:102C54000000000000000000000000000000000070
:102C64000000000000000000000000000000000060
:082C74000000000032547698C4
:04000005080201C923
:00000001FF
