:020000040800F2
:1000000000000120C5020008CB020008CF02000852
:1000100041030008450300088D03000800000000AC
:10002000000000000000000000000000D5030008F0
:10003000D903000800000000DD030008CD0A000815
:10004000F1030008F1030008F1030008F1030008C0
:10005000F1030008F1030008F1030008F1030008B0
:10006000F1030008F1030008F1030008F1030008A0
:10007000F1030008F1030008F1030008F103000890
:10008000F1030008F1030008F1030008000000007C
:10009000000000000000000000000000F103000864
:1000A000F1030008F1030008F1030008F103000860
:1000B000F1030008F1030008F1030008F103000850
:1000C000F1030008F1030008F1030008F103000840
:1000D000F1030008F1030008F1030008000000002C
:1000E000F1030008F1030008F1030008000000001C
:1000F000000000000000000000000000F103000804
:1001000000000000F1030008F1030008F1030008FB
:1001100000000000000000000000000000000000DF
:10012000F1030008F1030008F1030008F1030008DF
:10013000F1030008000000000000000000000000C3
:10014000000000000000000000000000F1030008B3
:10015000F1030008F1030008F1030008F1030008AF
:10016000F1030008F1030008000000000000000097
:10017000000000000000000000000000000000007F
:1001800000000000F1030008000000000000000073
:10019000F103000800B583B000F0BAF9384B394AD2
:1001A0001360394A1360394900E02146384B9942BF
:1001B0000BD20A684B6801F10C0488689842F4D9A4
:1001C0001168196004330432F8E72E4B1A68314B7A
:1001D0009A4200D0FEE72C4B1A682F4B9A42F9D175
:1001E000274B2E4A13602E4A13602E4B05E0002049
:1001F000106004329342FAD80B462B4A934204D241
:10020000194651F8082B5B68F4E7244B1B6813B9B7
:10021000234B1B6803B1FEE700F086F9694601A88D
:1002200000F022F9214C224BE41AA4100025AC4224
:1002300014DC204C204BE41AA4100025AC4213DC43
:100240000099019801F026F805461C4C1C4BE41A55
:10025000A410002C0EDC284600F0E2F8144B53F8F2
:10026000253098470135E2E7134B53F8253098477E
:100270000135E3E7013C124B53F824309847E8E797
:10028000BABADECA0000002088000020F40300088B
:100290000C04000878563412325476988C000020F2
:1002A000680200200C0400081C0400081C0400085C
:1002B0001C0400081C0400081C0400081C0400089E
:1002C0001C04000808B5FFF765FF00BEFEE71EF03E
:1002D000040F0CBFEFF30880EFF309807146414A29
:1002E00010472DE9F04182B004468846124B5E6B00
:1002F0009F6B9D6A1B6B13F0020F03D00E4BDB6AE2
:10030000002B0CDB0D4800F0B7F8CDF800803B4621
:1003100032462946204600F00BF900BEFEE74BF6B8
:10032000AB6100F07FF90028ECD0034B4FF00042A6
:10033000DA6202B0BDE8F08100ED00E004210008BF
:1003400000BEFEE71EF0040F0CBFEFF30880EFF3D2
:1003500009807146244A10472DE9F04182B00446D5
:100360008846084B5E6B9F6B9D6A074800F084F8D7
:10037000CDF800803B4632462946204600F0D8F8AA
:1003800000BEFEE700ED00E0142100081EF0040F9F
:100390000CBFEFF30880EFF309807146134A104752
:1003A0002DE9F04182B004468846084B5E6B9F6B96
:1003B0009D6A074800F060F8CDF800803B46324661
:1003C0002946204600F0B4F800BEFEE700ED00E04C
:1003D0002021000800BEFEE700BEFEE700BEFEE7EB
:1003E00070470000E302000859030008A103000859
:0403F00000BEFEE766
:1003F400342F0008000000208C000020342F000857
:1004040000000010000000108C0000206C0200208E
:080414000000001000000010C0
:10042000FEE7000008B503460C4A12685AB10B4AB1
:100430001068033323F003030344094A934206D8A8
:10044000064A136008BD054A06491160EFE701F04E
:1004500055F90C2303604FF0FF30F3E790000020C4
:1004600000FC00206C02002001230360014B0B60A4
:10047000704700BF040000200FB400B583B004AB88
:1004800053F8042B01938021064801F069F90028F4
:1004900003DD0146034800F037F803B05DF804EBD4
:1004A00004B07047980000202DE9F04385B0044661
:1004B0000F4643560BB10E461EE004252846214642
:1004C000ABBE0446384605B0BDE8F08314F9011B05
:1004D00004AA1A4402F8101C0133AB42F6D304AA52
:1004E0001344002203F8102C4FF00408E94640465C
:1004F0004946ABBE8046761B002EE3D03546102E13
:1005000028BF10250023E8E708B5FFF7CDFF08BD99
:1005100008B500F097F8024A024B9A6008BD00BF88
:100520000000000800ED00E008B500F0ABF808BDE1
:10053000F8B504460D4617461E462748FFF79CFFB0
:1005400021682648FFF798FF61682548FFF794FF68
:10055000A1682448FFF790FFE1682348FFF78CFF6C
:1005600021692248FFF788FF61692148FFF784FF6E
:10057000A1692048FFF780FFE1691F48FFF77CFF72
:100580001E48FFF779FF29461D48FFF775FF1D4CF0
:10059000E16A1D48FFF770FF216B1C48FFF76CFFF5
:1005A000E16B1B48FFF768FF15F0800F0AD115F4C7
:1005B000004F0CD11748FFF75FFF06991648FFF769
:1005C0005BFFF8BD39461548FFF756FFEFE73146A8
:1005D0001348FFF751FFEDE7E81F0008F81F000878
:1005E00008200008182000082820000838200008EB
:1005F00048200008582000086820000878200008DB
:100600008420000800ED00E094200008A4200008E9
:10061000B4200008E4200008EC200008C4200008F2
:10062000D420000883691A888A4201D000207047CC
:100630000268033A012A03D802338361012070471C
:10064000002070470C4B1A6842F001021A6000212A
:1006500099601A6822F0847222F480321A60074A84
:100660005A601A6822F480221A60D960044B4FF055
:1006700000629A60704700BF0038024010300024CA
:1006800000ED00E0224B9B6803F00C03042B14D018
:10069000082B16D01BB11F4B1F4A1A6002E01D4BDE
:1006A0001D4A1A601A4B9B68C3F303131B4AD15CA3
:1006B000184A1368CB4013607047164B184A1A60EB
:1006C000F0E7134B5A685B6803F03F0312F4800FA6
:1006D00013D0134AB2FBF3F20D4B5B68C3F38813DC
:1006E00003FB02F30A4A5268C2F30142013252008C
:1006F000B3FBF2F3074A1360D4E7074AB2FBF3F205
:10070000034B5B68C3F3881303FB02F3EAE700BF04
:10071000003802400C0000200024F40030210008C2
:1007200000127A000246A0F13003D8B2092809D994
:10073000A2F14103DBB2052B03D8A2F13700C0B20E
:1007400070470020704700002DE9F84F05464078BB
:10075000FFF7E8FF0746A878FFF7E4FF40EA07172E
:10076000FFB2E878FFF7DEFF81462879FFF7DAFF6E
:1007700004466879FFF7D6FF8046A879FFF7D2FFD5
:100780001E4B5E88240244EA093444EA08142043DC
:1007900040EA06461E60002427E04FEA840B0BF176
:1007A0000903E85CFFF7BEFF81460BF10A03E85C32
:1007B000FFF7B8FF80460BF10B03E85CFFF7B2FFD1
:1007C00082460BF10C0B15F80B00FFF7ABFF000294
:1007D00040EA0A3000B240EA091000B240EA0800DC
:1007E000074B23F814000134E4B27A08A242D4D8AB
:1007F0000349304600F05AFBBDE8F88F1000002096
:100800003C0100202DE9F8430646002401E00134B4
:10081000E4B2A04633570A2BF9D10125002712E094
:100820007057C0B2FFF77EFF4FFA80F9731993F942
:100830000100C0B2FFF776FF40B240EA091057FA54
:1008400080F0C7B20235A31EAB42E9DC7F42FFB2A3
:10085000464416F9020CC0B2FFF764FF44B216F921
:10086000010CC0B2FFF75EFF40B240EA0410C0B214
:10087000874202D00020BDE8F8830120FBE700009A
:10088000F8B5054690F90900C0B2FFF74BFF0746DF
:1008900095F90A00C0B2FFF745FF044695F90B0031
:1008A000C0B2FFF73FFF064695F90C00C0B2FFF754
:1008B00039FF074A1388240644EA077444EA0654B9
:1008C00044EA004018431060024B1860F8BD00BFB6
:1008D000100000201400002008B5037A302B02D04D
:1008E000342B03D008BDFFF72FFFFBE7FFF7C8FF4E
:1008F000F8E70000104B40F283629A60DA686FF309
:10090000CF32DA60DA686FF30C32DA60DA686FF3EC
:100910008A22DA60DA686FF38612DA60DA686FF3D7
:100920004512DA601A6922F440521A611A691A6192
:1009300000221A60704700BF00100140002208E04A
:1009400006494B60054B1B6813F0400FFAD001328B
:10095000D2B28356002BF3D1704700BF0010014084
:10096000054B1B6813F0200F04D0034B5B6803702A
:10097000012070470020704700100140064BDA68E4
:1009800042F00802DA60DA6842F00402DA60DA68FB
:1009900042F40052DA60704700100140114B1A68AF
:1009A00042F001021A601A6842F002021A601A68E4
:1009B00042F004021A601A6822F080021A601A6873
:1009C00042F400721A601A6842F480721A601A685F
:1009D00022F400621A6000225A601A6842F0400253
:1009E0001A60704700300140054BD860044B9B688B
:1009F00013F0800FFAD1024BD868C0B2704700BF25
:100A000000300140094A136843F001031360074BAB
:100A10001B6813F0020FFAD0044B9A6822F001020F
:100A20009A609A6822F002029A6070470038024089
:100A30001F2924D8032822D8DFE800F0020A121A5E
:100A40000F48036B012202FA01F119430163704759
:100A50000B48436B012202FA01F1194341637047CD
:100A60000748036C012202FA01F11943016470473F
:100A70000348436C012202FA01F1194341647047B3
:100A800000380240044B1A6822F002021A601A6809
:100A900022F004021A60704710E000E00A4B0022C6
:100AA0009A6058601A6842F001021A60064B1B688F
:100AB00013F4803FFAD0044B00225A609A601A68FF
:100AC00022F001021A60704710E000E008B5134BF5
:100AD0001B78DBB2022B05D0104B1B78DBB2012B4D
:100AE0000AD008BD0E4B1B6803B198470D4A136826
:100AF00023F480331360F4E7094B1B6843B1984734
:100B0000084A136823F001031360044B00221A7093
:100B1000044A136823F480331360E2E718010020CD
:100B20001C01002010E000E00F292CD810B401288F
:100B300010D018B1022819D010BC7047124C23688D
:100B400049000320884023EA000302FA01F1194317
:100B50002160F1E70D4C236849000320884023EA17
:100B6000000302FA01F119432160E5E7A1F10D0349
:100B7000DBB2022BE0D8064C20684B0002FA03F1EE
:100B800001432160D8E770470000024000040240A2
:100B9000000802400F291ED801280AD010B10228EF
:100BA0000ED070470C48436802FA01F119434160C6
:100BB00070470A48436802FA01F1194341607047DF
:100BC000A1F10D03DBB2022B05D80548436802FAF8
:100BD00001F11943416070470000024000040240E7
:100BE000000802400F2924D801280BD010B1022898
:100BF00010D070470F488368490002FA01F1194389
:100C0000816070470C488368490002FA01F119437A
:100C100081607047A1F10D03DBB2022B09D810B43B
:100C2000064CA0684B0002FA03F10143A16010BC1E
:100C30007047704700000240000402400008024074
:100C40000F2924D801280BD010B1022810D07047EA
:100C50000F48C368490002FA01F11943C1607047A7
:100C60000C48C368490002FA01F11943C16070479A
:100C7000A1F10D03DBB2022B09D810B4064CE068D9
:100C80004B0002FA03F10143E16010BC704770476A
:100C90000000024000040240000802400F2904D86E
:100CA00001280AD018B102280DD0184670470B4B06
:100CB0001B69CB4003F00103F7E7094B1B69CB40ED
:100CC00003F00103F1E7A1F10D02D2B2022AECD840
:100CD000044B1B69CB4003F00103E6E70000024030
:100CE00000040240000802400F294BD8012A07D017
:100CF000002A47D101282FD028B3022835D07047C9
:100D000001280BD010B1022810D070471E4843694B
:100D1000012202FA01F11943416170471B484369FE
:100D2000012202FA01F1194341617047A1F10D035B
:100D3000DBB2022B26D816484369012202FA01F1E0
:100D400019434161704710484369012202FA01F1D9
:100D500023EA0101416170470C484369012202FA0C
:100D600001F123EA010141617047A1F10D03DBB2FA
:100D7000022B07D806484369012202FA01F123EA4F
:100D800001014161704700BF0000024000040240C1
:100D900000080240072922D801280BD010B10228F0
:100DA00010D070472248036A890002FA01F1194302
:100DB000016270471F48036A890002FA01F1194372
:100DC00001627047A1F10D03DBB2022B2ED81A4845
:100DD000036A890002FA01F10B4303627047A1F133
:100DE0000803DBB2072B21D801280BD010B1022851
:100DF00010D070470E48436A890002FA01F1194386
:100E0000416270470B48436A890002FA01F11943B5
:100E100041627047A1F10D03DBB2022B06D80648F0
:100E2000436A890002FA01F119434162704700BF29
:100E3000000002400004024000080240431EDBB2F2
:100E4000062B27D8174BDB6813F4803FFAD1154BDC
:100E50001B69002B1FDB134B1A6922F078021A6101
:100E60001A6942EAC00018611A6942F002021A6166
:100E70001A6942F480321A610A4BDB6813F4803F2E
:100E8000FAD1084BDA6842F00102DA601A6922F0FE
:100E900002021A617047034B034A5A6002F188321A
:100EA0005A60D8E7003C02402301674530B482B065
:100EB0001E4BDB6813F4803FFAD11C4B1B69002BDF
:100EC0000ADB1A4B1C6924F440741C611C6944F44D
:100ED00080741C61002424E0144B154C5C6004F108
:100EE00088345C60EDE731F81430ADF806300F4D12
:100EF0002B6943F001032B61BDF806309BB220F84B
:100F0000023B0A4BDB6813F4803FFAD1074BDD68E4
:100F100045F00105DD601D6925F001051D61013405
:100F2000E4B29442DFD302B030BC7047003C0240D0
:100F30002301674508B5012204210020FFF7D4FEF4
:100F4000C820FFF7ABFD002204211046FFF7CCFEBE
:100F50000120FFF7A3FD012204210020FFF7C4FEBA
:100F6000C820FFF79BFD002204211046FFF7BCFEBE
:100F7000C820FFF793FD012204210020FFF7B4FEF3
:100F80000148FFF78BFD08BD605B030010B5044608
:100F9000002208211046FFF7A7FE2046FFF724FD98
:100FA00010BD10B50446012208210020FFF79CFE69
:100FB0002046FFF719FD10BD08B5FFF7BBFF112054
:100FC000FFF7E4FF44F62060FFF768FD3A20FFF7E3
:100FD000DDFF0520FFF7E5FF2920FFF7D7FF08BD5C
:100FE00038B5C5B20A4B1D70CCB20A4B1C702A2012
:100FF000FFF7CCFF0020FFF7D4FF2846FFF7D1FF13
:101000000020FFF7CEFF2046FFF7CBFF38BD00BF23
:10101000230100202201002038B5C5B20A4B1D7003
:10102000CCB20A4B1C702B20FFF7B0FF0020FFF75B
:10103000B8FF2846FFF7B5FF0020FFF7B2FF2046B4
:10104000FFF7AFFF38BD00BF2501002024010020BD
:1010500038B5C5B2040A2C20FFF798FF2046FFF7E9
:10106000A0FF2846FFF79DFF38BD0000F8B50646F3
:10107000104B1D78104B1B78ED1A01350F4B1B7868
:101080000F4A12789B1A013315FB03F5ADB22C20E1
:10109000FFF77CFFF7B2360A002407E03046FFF77F
:1010A00080FF3846FFF77DFF0134A4B2AC42F5D390
:1010B000F8BD00BF220100202301002024010020F0
:1010C0002501002010B504467F210020FFF788FF8E
:1010D0009F210020FFF7A0FF2046FFF7C7FF014B2D
:1010E0001C8010BD2001002082B070B584B0054680
:1010F0000C460993BDF82C608DF80F200023029355
:101100000193009302932FE0254B1888FFF7A0FF6F
:10111000019B013301939DF82430DBB2019A934285
:101120001FD901989DF82410294489B20139281A41
:1011300089B280B2FFF754FF02989DF82510214430
:1011400089B20139201A89B280B2FFF765FF009B8E
:10115000019A934013F4004FD6D03046FFF778FF42
:10116000D6E7029B013302939DF82530DBB2029A49
:1011700093420FD90A9A9DF80F305BB2203B9DF83D
:101180002500029900FB031332F81330009300236B
:101190000193C0E704B0BDE8704002B0704700BFE3
:1011A0002001002082B0F0B583B004460E461546FB
:1011B0000993BDF82C700EE015F8012B01970A9BDE
:1011C0000093099B52B231462046FFF78DFF9DF8F0
:1011D0002430E41AA4B22B785BB27BB19DF82430A2
:1011E000E31A002BE8DC9DF82530F61AB6B29DF81C
:1011F0002530F31A002B01DD7F24DDE703B0BDE8C5
:10120000F04002B0704708B51120FFF7BFFE08BDDF
:1012100010B5184B1B68B3F1006F03D0164A934208
:1012200014D010BD00F020FA144B01221A70144B98
:10123000144A1A60144B1B68144C236000220B21C3
:101240001046FFF751FD23689847EAE700F0ECF9F4
:101250000A4B01221A700A4B074A1A600C4B1B6892
:101260000A4C236000220B211046FFF73DFD236846
:101270009847D6E714000020000002082D01002046
:1012800008ED00E000C0000804C0000828010020AC
:101290000400020808B500F0CBF80020FFF712FFA9
:1012A00000F062F90CE00A210020FFF7F7FCC8B15A
:1012B000574B1B7857481844FFF752FB012817D0AB
:1012C000554B1B78002B40F0A18009210020FFF72F
:1012D000E5FC0028E7D1514B4FF000621A60FFF7A0
:1012E00097FFE5E74D4B4E4A1A60FFF791FFDFE7A6
:1012F000FFF789FF4B4B1B78012B1BD0012B26D00E
:10130000434B1B78434AD25C0A2A2FD00133404A10
:101310001370404B1B7A312BD2D100220B21104687
:10132000FFF7E2FC00F060F93F48FFF707FBFFF72B
:101330006FFFC5E7364A127836498A5C312ADDD11B
:10134000384B00221A703848FFF7F8FAB8E7304BEC
:101350001B78304AD35C302BD2D1324B00221A702A
:101360003148FFF7EBFAFFF753FFC9E72948FFF7CA
:10137000B3FA2E4B1B78012B0FD02B48FFF7DEFA68
:10138000234B00221A702348FFF73CFA10B30022C7
:1013900009210120FFF7A8FCBBE7204B1B68204A6E
:1013A00093420ED0B3F1006FE7D10320FFF746FD63
:1013B0000420FFF743FD1D4B00221A7000F0F4F8E3
:1013C000DBE70520FFF73AFD184B00221A7000F00A
:1013D000EBF8D2E700F068F9012209211046FFF787
:1013E00083FC0E4B1B680E4A934208D0B3F1006F8A
:1013F0008FD10A4B0A4A1A60FFF70AFF89E7074BA9
:101400004FF000621A60FFF703FF82E7002008BD7B
:101410002C010020040200202D01002014000020D7
:1014200000000208200000209C2E0008210000205F
:1014300008B5FFF7E7FA00210846FFF7F9FA01219E
:101440000020FFF7F5FA0C210320FFF7F1FA042141
:101450000320FFF7EDFAFFF715FB0222062100201B
:10146000FFF762FB052206210020FFF793FC022212
:1014700007210020FFF758FB052207210020FFF776
:1014800089FC022205210020FFF74EFB05221146B0
:101490000020FFF77FFC012208210020FFF744FB1A
:1014A000002208211046FFF775FB00220821104694
:1014B000FFF798FB012204210020FFF735FB0022F3
:1014C00004211046FFF766FB002204211046FFF7B7
:1014D00089FBFFF763FAFFF76FFDFFF70BFAFFF7E2
:1014E0004DFA022206210120FFF71EFB07220621EA
:1014F0000120FFF74FFC022207210120FFF714FB18
:10150000072211460120FFF745FC01220C2110465D
:10151000FFF70AFB00220C210120FFF73BFB002212
:101520000C210120FFF75EFB002209211046FFF786
:10153000FBFA002209211046FFF72CFB01220921AA
:101540000020FFF77DFB00220A211046FFF7ECFA8E
:1015500000220A211046FFF71DFB01220A2100206C
:10156000FFF76EFB08BD000030B583B00B4C4FF6A3
:10157000FF750195636800932368094A9B217820D1
:10158000FFF710FE0195636800932368054A8721E1
:101590005A20FFF707FE03B030BD00BF180000203F
:1015A000D82E0008E42E000830B583B00B4C4FF65F
:1015B000FF750195636800932368094A64216E20D2
:1015C000FFF7F0FD0195636800932368054A5021F9
:1015D0005A20FFF7E7FD03B030BD00BF1800002020
:1015E000EC2E0008E42E000830B583B00B4C4FF60B
:1015F000FF750195636800932368094A64216E2092
:10160000FFF7D0FD0195636800932368054A5021D8
:101610005A20FFF7C7FD03B030BD00BF18000020FF
:10162000EC2E0008F82E000830B583B00B4C4FF6B6
:10163000FF750195636800932368094A2D21732083
:10164000FFF7B0FD0195636800932368054A1921EF
:101650007D20FFF7A7FD03B030BD00BF18000020BC
:10166000C02E0008CC2E000830B583B00B4C4FF6CE
:10167000FF750195636800932368094A2D21732043
:10168000FFF790FD0195636800932368054A1921CF
:101690007320FFF787FD03B030BD00BF18000020A6
:1016A000C02E0008B42E000830B583B06E2114207F
:1016B000FFF796FC6F215020FFF7AEFC0020FFF7EC
:1016C000D5FC0B4C4FF6FF750195636800932368BA
:1016D000084A64216E20FFF765FD01956368009359
:1016E0002368054A50216420FFF75CFD03B030BD3C
:1016F00018000020A02E0008AC2E0008014B18682E
:10170000704700BF2400002030B5141E05469BB072
:10171000184605DA8B232B604FF0FF301BB030BD2D
:101720004FF40273ADF80C3014BF04F1FF332346BD
:10173000029305934FF6FF7300910491ADF80E30BC
:1017400002461E9B6946284600F072F8431CBCBF47
:101750008B232B60002CE1D0009B00221A70DDE768
:1017600007B5009313460A46014603480068FFF791
:10177000CBFF03B05DF804FB240000202DE9F04707
:101780008E689E4282460C469046994637D88A8992
:1017900012F4906F31D0256809696F1A65690223C8
:1017A00005EB450595FBF3F509F101033B449D422B
:1017B00038BF1D46530530D5294600F07BFB064651
:1017C00050B90C23CAF80030A38943F04003A38129
:1017D0004FF0FF30BDE8F0873A46216900F0F8FA93
:1017E000A38923F4906343F08003A381266165619C
:1017F0003E44ED1B2660A5604E464E4500D94E4640
:1018000032464146206800F0EEFAA3689B1BA360B5
:1018100023681E4426600020DCE72A4600F0A4FB73
:1018200006460028E2D12169504600F0F5FAC8E7E3
:101830002DE9F04F9DB0804603938B891D060C4621
:1018400016460FD50B696BB9402100F033FB2060C1
:10185000206128B90C23C8F800304FF0FF30C7E0F2
:10186000402363610023099320238DF8293030231E
:101870008DF82A304FF0010B37463D4615F8013BF5
:101880000BB1252B3ED1B7EB060A0BD0534632469F
:1018900021464046FFF772FF013000F0A480099B0B
:1018A000534409933B78002B00F09D8000234FF0B8
:1018B000FF32CDE90523049307938DF853301A9333
:1018C0002F46052217F8011B4F4800F031FA049B00
:1018D000D0B9D90644BF20228DF853201A0744BF3F
:1018E0002B228DF853202A782A2A15D0079A2F46C2
:1018F00000200A25394611F8013B303B092B4DD910
:10190000B8B10FE02F46B8E73F4A801A0BFA00F053
:10191000184304903D46D3E7039A111D12680391C2
:10192000002A01DB079204E0524243F002030792CF
:1019300004933B782E2B0CD17B782A2B33D1039B3D
:101940001A1D1B680392002BB8BF4FF0FF330237FC
:1019500005932E4D39780322284600F0E9F938B175
:101960004023401B03FA00F0049B03430137049318
:10197000397827488DF8281006227E1C00F0D8F907
:10198000002838D0234B13BB039B073323F00703F6
:1019900008330393099B4B4409936DE705FB02321F
:1019A00001200F46A6E700230137059319460A25B3
:1019B000384610F8012B303A092A03D9002BC8D039
:1019C0000591C6E705FB012101230746F0E703ABBC
:1019D00000932246104B04A94046AFF30080B0F1BB
:1019E000FF3F8146D6D1A3895B063FF536AF099804
:1019F0001DB0BDE8F08F03AB00932246064B04A94F
:101A0000404600F081F8EAE7002F0008062F0008A2
:101A10000A2F0008000000007D1700082DE9F0479C
:101A200091461F468A680B69DDF820809342B8BF53
:101A30001346C9F8003091F8432006460C4612B10F
:101A40000133C9F800302368990642BFD9F8003045
:101A50000233C9F80030256815F0060507D104F1F6
:101A6000190AE368D9F800209B1AAB4228DC94F8E5
:101A700043302268003318BF012392062DD404F1AD
:101A8000430239463046C047013020D02368E5681C
:101A9000D9F8002003F00603042B08BFAD1AA36891
:101AA00022690CBF25EAE57500259342C4BF9B1A45
:101AB000ED184FF000091A344D451AD1002008E006
:101AC0000123524639463046C047013003D14FF01A
:101AD000FF30BDE8F0870135C3E7E1185A1C30201C
:101AE00081F84300224494F8451082F843100233F1
:101AF000C5E70123224639463046C0470130E6D0CB
:101B000009F10109D8E700002DE9F04301F1430C88
:101B10000C46097E85B06E291746064698460C9AF3
:101B200000F0B38022D8632936D00AD8002900F00B
:101B3000B980582900F0838004F1420584F84210EE
:101B400032E0642901D06929F6D1206813680506BE
:101B500003F104012AD51B681160002B03DA2D2242
:101B60005B4284F843206F480A2239E0732900F071
:101B70009D8008D86F2920D07029DDD1236843F0DB
:101B80002003236003E0752917D07829D4D1782366
:101B900084F84530644855E01368191D1B681160CE
:101BA00004F1420584F8423001238CE01B68116087
:101BB00010F0400F18BF1BB2CFE713682568181D3F
:101BC0001060280601D51B6802E06806FBD51B885B
:101BD00054486F2914BF0A220822002184F84310B8
:101BE0006568A560002DC0F29580216821F0040190
:101BF0002160002B3DD1002D40F08E806546082AE3
:101C00000BD12368DB0708D5236962689A42DEBFDF
:101C1000302305F8013C05F1FF35ACEB05032361EA
:101C2000CDF800803B4603AA21463046FFF7F6FE7A
:101C300001304DD14FF0FF3005B0BDE8F083394899
:101C400084F84510136821681D1D1B6815600A067D
:101C50000BD5CA0744BF41F0200121601BB922689F
:101C600022F0200222601022B7E74D0648BF9BB247
:101C7000EFE76546B3FBF2F102FB1133C35C05F8F5
:101C8000013D0B460029F5D1B9E713682568616964
:101C9000181D106028061B6801D5196002E06A064D
:101CA000FBD51980002323616546B9E71368191D28
:101CB00011601D6862680021284600F039F808B1FB
:101CC000401B606063682361002384F84330A7E70A
:101CD00023692A4639463046C0470130AAD02368D6
:101CE0009B0713D4E068039B9842B8BF1846A3E74C
:101CF00001234A4639463046C04701309AD0013563
:101D0000E368039A9B1AAB42F2DCEBE7002504F18F
:101D10001909F5E7002BACD1037884F8423004F1BF
:101D200042056CE7112F0008222F00080000000078
:101D300001F0FF01102A2BDB10F0070F08D010F87C
:101D4000013B013A8B422DD010F0070F42B3F6D180
:101D5000F0B441EA012141EA014122F007047FF099
:101D600000070023F0E80256083C85EA010586EAF0
:101D7000010685FA47F5A3FA87F586FA47F6A5FA2C
:101D800087F68EB9EED1F0BC01F0FF0102F0070238
:101D900032B110F8013B013A83EA010313B1F8D1E3
:101DA0000020704701387047002D06BF35460338C4
:101DB000073815F0010F07D1013015F4807F02BFFD
:101DC000013015F4C03F0130F0BC0138704700BF4E
:101DD00010B5431E0A44914200D110BD11F8014BC9
:101DE00003F8014FF7E7884210B501EB020307D86B
:101DF000421E99420AD011F8014B02F8014FF8E750
:101E00008342F5D98118D21AD34200D110BD13F8FC
:101E1000014D01F8014DF7E738B50546002945D0D9
:101E200051F8043C0C1F002BB8BFE41800F0D2F8A6
:101E30001F4A1368104633B9636014602846BDE832
:101E4000384000F0C8B8A3420CD921686218934208
:101E500004BF1A685B68636004BF521822600460A4
:101E6000ECE713465A680AB1A242FAD91968581821
:101E7000A0420BD120680144581882421960DDD17C
:101E8000106852685A6001441960D7E702D90C23E0
:101E90002B60D3E7206821188A4204BF116852687A
:101EA000626004BF091821605C60C7E738BD00BFED
:101EB0003001002070B5CD1C25F0030508350C2D30
:101EC00038BF0C25002D064601DBA94203D90C239F
:101ED0003360002070BD00F07DF8214A146821466F
:101EE00091B9204C23681BB9304600F063F820609C
:101EF0002946304600F05EF8431C24D10C233360A1
:101F0000304600F068F8E4E70B685B1B18D40B2B35
:101F10000FD90B60CD50CC18304600F05CF804F1BE
:101F20000B00231D20F00700C31AD3D05A42E25001
:101F3000D0E78C424B6816BF636013600C46EBE73A
:101F40000C464968CCE7C41C24F00304A04205D029
:101F5000211A304600F02EF80130CFD02560DBE7A3
:101F60003001002034010020F8B5074614460E4623
:101F700021B91146BDE8F840FFF79CBF22B9FFF731
:101F80004BFF25462846F8BD00F026F8A0420FD2A8
:101F900021463846FFF78EFF05460028F2D031462D
:101FA0002246FFF715FF31463846FFF735FFE9E7D0
:101FB0003546E7E738B5064C00230546084623605A
:101FC000FEF730FA431C02D1236803B12B6038BD01
:101FD000380100207047704751F8043C181F002B4F
:101FE000BCBF0B58C0187047537461636B20667296
:101FF000616D653A0A000000205230203D20202506
:102000003038580A00000000205231203D202025A1
:102010003038580A00000000205232203D20202590
:102020003038580A00000000205233203D2020257F
:102030003038580A0000000020523132203D20255F
:102040003038580A00000000204C52203D20202546
:102050003038580A00000000205043203D20202541
:102060003038580A0000000020505352203D2025EF
:102070003038580A000000004653522F4641523A69
:102080000A0000002043465352203D2020253038CE
:10209000580A00002048465352203D202025303861
:1020A000580A00002044465352203D202025303855
:1020B000580A00002041465352203D202025303848
:1020C000580A0000204D4D464152203D2025303811
:1020D000580A00002042464152203D202025303839
:1020E000580A00004D6973630A000000204C522F0B
:1020F0004558435F52455455524E3D20253038587F
:102100000A0000005B486172644661756C745D0A88
:10211000000000005B4275734661756C745D0A00D7
:102120005B55736167654661756C745D0A000000FC
:102130000000000000000000010203040607080977
:10214000000000000000000000000000000000008F
:10215000000000000000000000000000000000007F
:10216000000000000000000C000C000C000C000C33
:10217000000C000C000C000C000C000C0000000C0B
:10218000000C0000000000000000001B001B001BF2
:10219000001B001B00000000000000000000000009
:1021A0000000000000000000000000000000801996
:1021B000801980198019C07FC07F80190033C07FCB
:1021C000C07F003300330033003300000000000004
:1021D0000000001E003F807580650074003C001EFA
:1021E00000078005806580658075003F001E000443
:1021F000000400000000007000D840D8C0D880D98A
:1022000000730006000C801BC036C066C046C006C6
:1022100080030000000000000000001E003F0033AB
:1022200000330033001E000CC03CC0668063806138
:102230008063C03E801C0000000000000000000C15
:10224000000C000C000C000C00000000000000005E
:10225000000000000000000000000000000000007E
:10226000800000010003000600060004000C000CC2
:10227000000C000C000C000C00040006000600031B
:1022800000018000002000100018000C000C000469
:102290000006000600060006000600060004000C0A
:1022A000000C0018001000200000000C002D003F62
:1022B000001E0033000000000000000000000000CD
:1022C000000000000000000000000000000000000E
:1022D0000000000C000C000C000CC0FFC0FF000C44
:1022E000000C000C000C00000000000000000000CA
:1022F00000000000000000000000000000000000DE
:1023000000000000000000000000000C000C0004B1
:1023100000040008000000000000000000000000B1
:10232000000000000000001E001E00000000000071
:10233000000000000000000000000000000000009D
:10234000000000000000000000000000000000008D
:102350000000000C000C0000000000000000000362
:10236000000300030006000600060006000C000C37
:10237000000C000C001800180018000000000000FD
:102380000000001E003F0033806180618061806D2D
:10239000806D8061806180610033003F001E00001D
:1023A0000000000000000006000E001E003600269F
:1023B00000060006000600060006000600060006ED
:1023C00000060000000000000000001E003F8073B7
:1023D00080618061800100030006000C001800305D
:1023E0000060807F807F0000000000000000001C73
:1023F000003E006300630003000E000E0003800136
:10240000800180618073003F001E0000000000001A
:1024100000000006000E000E001E001E0016003612
:1024200000360066807F807F000600060006000000
:10243000000000000000007F007F0060006000607E
:10244000006E007F80638001800180618073003FA7
:10245000001E0000000000000000001E003F80334E
:1024600080610060006E007F8073806180618061A8
:102470008033003F001E0000000000000000807F4D
:10248000807F80010003000300060006000C000CA2
:10249000000C0008001800180018000000000000E0
:1024A0000000001E003F8063806180610021001EEB
:1024B000003F8061806180618061003F001E0000FC
:1024C000000000000000001E003F0073806180617A
:1024D00080618073803F801D800180610073003FB8
:1024E000001E0000000000000000000000000000CE
:1024F0000000000C000C00000000000000000000C4
:102500000000000C000C00000000000000000000B3
:102510000000000000000000000C000C00000000A3
:10252000000000000000000C000C00040004000883
:10253000000000000000000080008003000E003852
:1025400000600038000E80038000000000000000E2
:102550000000000000000000000000000000807F7C
:10256000807F00000000807F807F0000000000006E
:10257000000000000000000000000000000000005B
:1025800000400070001C000780010007001C007064
:102590000040000000000000000000000000001FDC
:1025A000803FC071C060C000C00180030007000E02
:1025B000000C000C0000000C000C000000000000EB
:1025C0000000001E003F803180718063806F806D4D
:1025D000806D806F806700600032003E001C00004C
:1025E000000000000000000E000E001B001B001B7E
:1025F000001B80318031803F803F8031C060C060EF
:10260000C0600000000000000000007C007E00634D
:10261000006300630063007E007E00638061806170
:102620008063007F007E0000000000000000001EAC
:10263000003F8031806100600060006000600060E9
:10264000006080618031003F001E0000000000003B
:102650000000007C007F0063806380618061806196
:1026600080618061806100630063007E007C000007
:10267000000000000000807F807F0060006000603C
:102680000060007F007F0060006000600060807F6D
:10269000807F0000000000000000807F807F0060DD
:1026A000006000600060007F007F006000600060EC
:1026B0000060006000600000000000000000001EDC
:1026C000003F803180610060006000608063806353
:1026D000806180618031803F001E000000000000AA
:1026E0000000806180618061806180618061807FA5
:1026F000807F806180618061806180618061000095
:10270000000000000000003F003F000C000C000C27
:10271000000C000C000C000C000C000C000C003F26
:10272000003F0000000000000000800180018001E7
:1027300080018001800180018001800180618061D1
:102740008073003F001E0000000000000000C06019
:102750008061006300660066006C0078007C0066A3
:102760000066006380618061C060000000000000BE
:1027700000000060006000600060006000600060B9
:1027800000600060006000600060807F807F00006B
:10279000000000000000C071C071C07BC07AC06A38
:1027A000C06AC06EC064C060C060C060C060C0600D
:1027B000C06000000000000000008071807180791E
:1027C00080798079806D806D806D8065806780679D
:1027D0008067806380630000000000000000001E2E
:1027E000003F003380618061806180618061806131
:1027F000806180610033003F001E00000000000087
:102800000000007E007F8063806180618061806362
:10281000007F007E006000600060006000600000DB
:10282000000000000000001E003F00338061806156
:102830008061806180618061806580670033803F56
:10284000401E0000000000000000007E007F80634A
:10285000806180618063007F007E006600630063AA
:1028600080618061C0600000000000000000000E78
:10287000001F8031803100300038001E00078003C7
:10288000806180618031003F001E00000000000078
:102890000000C0FFC0FF000C000C000C000C000C7E
:1028A000000C000C000C000C000C000C000C0000D4
:1028B00000000000000080618061806180618061B3
:1028C0008061806180618061806180618073003F90
:1028D000001E0000000000000000C060C060C0607A
:1028E000803180318031001B001B001B001B000E5B
:1028F000000E000E00040000000000000000C0C038
:10290000C0C0C0C0C0C0C0C0C0CC804C804C805EC5
:10291000805280528073806180610000000000005E
:102920000000C0C0806080610033003B001E000CCE
:10293000000C001E001F003B80718061C0C00000C1
:10294000000000000000C0C08061806100330033DF
:10295000001E001E000C000C000C000C000C000CF3
:10296000000C0000000000000000803F803F80015C
:10297000000300030006000C000C001800180030D3
:102980000060807F807F000000000000000F000FCB
:10299000000C000C000C000C000C000C000C000CD7
:1029A000000C000C000C000C000C000C000F000FC1
:1029B0000000001800180018000C000C000C000C9F
:1029C00000060006000600060003000300030000E6
:1029D00000000000001E001E0006000600060006A3
:1029E00000060006000600060006000600060006B7
:1029F00000060006001E001E0000000C000C001E59
:102A0000001200330033806180610000000000008C
:102A100000000000000000000000000000000000B6
:102A200000000000000000000000000000000000A6
:102A3000000000000000000000000000E0FF0000B7
:102A4000000000380018000C00000000000000002A
:102A50000000000000000000000000000000000076
:102A60000000000000000000000000000000001F47
:102A7000803F80618001801F803F80618063807F14
:102A8000C03800000000000000000060006000602E
:102A90000060006E007F8073806180618061806172
:102AA0008073007F006E0000000000000000000046
:102AB000000000000000001E003F80738061006085
:102AC000006080618073003F001E00000000000075
:102AD00000008001800180018001801D803F8073A3
:102AE00080618061806180618073803F801D000013
:102AF0000000000000000000000000000000001EB8
:102B0000003F00738061807F807F00608071003FA4
:102B1000001E0000000000000000C007C00F000CF5
:102B2000000C807F807F000C000C000C000C000C5F
:102B3000000C000C000C0000000000000000000071
:102B400000000000801D803F807380618061806193
:102B500080618073803F801D80018063007F003E24
:102B600000000060006000600060006F807F807186
:102B7000806180618061806180618061806100002E
:102B80000000000000000006000600000000003EFB
:102B9000003E0006000600060006000600060006CD
:102BA0000006000000000000000600060000000013
:102BB000003E003E00060006000600060006000675
:102BC0000006000600060046007E003C0000006093
:102BD000006000600060806100630066006C007C43
:102BE0000076006300638061C060000000000000A8
:102BF0000000003E003E000600060006000600063B
:102C0000000600060006000600060006000600009A
:102C1000000000000000000000000000000080DD57
:102C2000C0FFC0CEC0CCC0CCC0CCC0CCC0CCC0CC0F
:102C3000C0CC000000000000000000000000000008
:102C40000000006F807F80718061806180618061A1
:102C500080618061806100000000000000000000D1
:102C6000000000000000001E003F80738061806152
:102C7000806180618073003F001E00000000000042
:102C80000000000000000000006E007F8073806183
:102C90008061806180618073007F006E00600060F1
:102CA000006000600000000000000000801D803F08
:102CB000807380618061806180618073803F801D4E
:102CC0008001800180018001000000000000000000
:102CD00000000067803F00390030003000300030D5
:102CE0000030003000300000000000000000000054
:102CF000000000000000001E803F80610060007F37
:102D0000803F80018061007F001E00000000000005
:102D100000000000000800180018007F007F001865
:102D200000180018001800180018801F800F0000FD
:102D300000000000000000000000000000008061B2
:102D40008061806180618061806180618063807F5B
:102D5000803D0000000000000000000000000000B6
:102D60000000C060803180318031001B001B001BDF
:102D7000000E000E00060000000000000000000031
:102D800000000000000080DD80DD80DD0055005582
:102D900000550077007700220022000000000000AC
:102DA00000000000000000000000806100330033DC
:102DB000001E000C000C001E003300338061000078
:102DC0000000000000000000000000008061806141
:102DD000803100330033001B001B001B000E000E6F
:102DE000000E001C007C00700000000000000000CD
:102DF0000000C07FC07F800100030006000C0018A7
:102E00000030C07FC07F000000000000800380070A
:102E100000060006000600060006000E001C001C4E
:102E2000000E00060006000600060006800780036C
:102E30000006000600060006000600060006000662
:102E40000006000600060006000600060006000652
:102E5000000600060038003C000C000C000C000CC2
:102E6000000C000E00070007000E000C000C000C08
:102E7000000C000C003C00380000000000000000C6
:102E80000000000000008038807F00470000000044
:102E90000000000000000000000000006F6B000058
:102EA0004552524F5220494E0000000048455846B6
:102EB000494C4500544F204241434B5550000000BF
:102EC000535749544348494E47000000544F204D42
:102ED00041494E2041505000424F4F544C4F4144C5
:102EE000455200004D4F444500000000464C415300
:102EF00048494E4700000000444F4E450000000086
:102F0000232D302B2000686C4C00656667454647D2
:102F10000030313233343536373839414243444555
:102F200046003031323334353637383961626364C4
:032F3000656600D3
:102F34007856341294000020000000000024F400AD
:102F440000000008000002080B12000040210008E5
:102F54000101FFFF28000020000000000000000025
:102F6400000000000000000000000000000000005D
:102F7400000000000000000000000000000000004D
:102F8400000000000000000000000000000000003D
:102F9400000000000000000000000000000000002D
:102FA400000000000000000000000000000000001D
:0C2FB4000000000000000000325476987D
:040000050800019559
:00000001FF
